:1000000033C000004CC000004AC0000048C00000DF
:1000100046C0000044C0000042C0000040C00000D4
:100020003EC000003CC000003AC0000037C10000E4
:1000300036C0000034C0000032C0000030C00000F4
:100040002EC000002CC000002AC0000028C0000004
:1000500026C0000024C0000022C0000020C0000014
:100060001EC000001CC0000011241FBECFEFD4E052
:10007000DEBFCDBF11E0A0E0B1E0ECE8F3E002C0EC
:1000800005900D92A031B107D9F721E0A0E1B1E0D0
:1000900001C01D92A331B207E1F7D2D075C1B0CF34
:1000A00080FF02C0419A01C0419881FF02C0429A7C
:1000B00001C0429882FF02C0439A01C0439883FF67
:1000C00002C0449A089544980895CF93C82F5D9A2A
:1000D00082958F70E5DF5D985D9A8C2FE1DF5D98EA
:1000E00086EA8A95F1F700C0CF9108955C98EDCF2C
:1000F00008955C9AEACF0895CF93DF93EC0188814D
:10010000882329F02196F5DF89918111FCCFDF91B9
:10011000CF91089590E4699F800D11248068E6CF07
:100120000895CF93399A3A9A3B9A3C9A559A549AA1
:1001300085EA9EE00197F1F700C000005C985D98A9
:10014000C3E05D9A83E0ACDF5D9881EE94E00197B7
:10015000F1F700C00000C150A1F75D9A82E0A0DF76
:100160005D9889EF90E00197F1F700C0000088E208
:10017000BDDF88E0BBDF81E0B9DF83EF91E001976D
:10018000F1F700C0000086E0B1DF8CE0AFDFCF9177
:100190000895CF93DF93CDB7DEB7A0970FB6F8944D
:1001A000DEBF0FBECDBF81ECA1DF4AE0BE016F5FB5
:1001B0007F4F80E090E0B5D0CE0101969DDF4AE010
:1001C000BE016F5F7F4F80E090E0ABD0CE01019623
:1001D00093DF89E091E090DF4AE0BE016F5F7F4FDF
:1001E00080E090E09ED0CE01019686DF4AE0BE011D
:1001F0006F5F7F4F80E090E094D0CE0101967CDF6E
:1002000089E091E079DF4AE0BE016F5F7F4F80E0D7
:1002100090E087D0CE0101966FDF4AE0BE016F5FAC
:100220007F4F80E090E07DD0CE01019665DFA09603
:100230000FB6F894DEBF0FBECDBFDF91CF9108950A
:1002400014B815B86EDF8BE091E056DF8DE0809337
:10025000810089E09DE3909389008093880082E08B
:1002600080936E007894809112018F5F883118F42A
:100270008093120102C010921201809111018F5FD0
:100280008C3318F48093110102C01092110161E0C7
:1002900081E040DF80E091E02FDFE5CF1F920F92F9
:1002A0000FB60F9211242F933F934F935F936F9349
:1002B0007F938F939F93AF93BF93EF93FF9380911F
:1002C00010018F5F8C3319F08093100107C01092DA
:1002D0001001809111018F5F8093110180911101B4
:1002E0008C3339F410921101809112018F5F809349
:1002F000120180911201883110F01092120149DF31
:10030000FF91EF91BF91AF919F918F917F916F91ED
:100310005F914F913F912F910F900FBE0F901F90C3
:100320001895BB274A3031F4992322F4BDE2909509
:1003300081959F4F01C0BB27FB015527AA27880F36
:10034000991FAA1FA41710F0A41B83955051B9F749
:10035000A05DAA3308F0A95DA193009779F7B111C8
:10036000B1931192CB0100C0DC01FC01672F7191A8
:100370007723E1F7329704C07C916D93708362918B
:0C038000AE17BF07C8F30895F894FFCF34
:10038C0030303A30303A3030003A00637A617300E2
:00000001FF
