:10000000B0C00000C9C00000C7C00000C5C00000EB
:10001000C3C00000C1C00000BFC00000BDC00000E0
:10002000BBC00000B9C00000B7C000005BC3000047
:10003000B3C00000B1C00000AFC00000ADC0000000
:10004000ABC00000A9C00000A7C00000A5C0000010
:10005000A3C00000A1C000009FC000009DC0000020
:100060009BC0000099C0000000407A10F35A00A025
:10007000724E18090010A5D4E80000E87648170071
:1000800000E40B54020000CA9A3B000000E1F505B1
:10009000000080969800000040420F000000A086FB
:1000A00001000000102700000000E803000000002D
:1000B0006400000000000A000000000001000000D1
:1000C00000002C76D888DC674F0823DFC1DFAE59EB
:1000D000E1B1B796E5E3E453C63AE651997696E87E
:1000E000E6C28426EB898C9B62ED407C6FFCEFBC02
:1000F0009C9F40F2BAA56FA5F490055A2AF75C932D
:100100006B6CF9676DC11BFCE0E40D47FEF520E662
:10011000B500D0ED902E0300943577050080841E45
:10012000080000204E0A000000C80C333333330FA0
:10013000986E12831141EF8D2114893BE65516CF3D
:10014000FEE6DB18D1844B381BF77C1D901DA4BB49
:10015000E424203284725E228100C9F124ECA1E5FE
:100160003D2711241FBECFEFD4E0DEBFCDBF11E08D
:10017000A0E0B1E0E6EEF0E102C005900D92A431FE
:10018000B107D9F721E0A4E1B1E001C01D92A2338B
:10019000B207E1F79DD0A5C733CF80FF02C0419AD7
:1001A00001C0419881FF02C0429A01C0429882FF7B
:1001B00002C0439A01C0439883FF02C0449A089545
:1001C0004498089586B186958170329982603399FA
:1001D0008460349988600895CF93DF9339983A9872
:1001E0003B983C985F9A5D9AEDDF90E1899FE00132
:1001F00011245D985D9AE6DF5D988C2BDF91CF919D
:1002000008955C98E9CF0895CF93C82F399A3A9A08
:100210003B9A3C9A5F985D9A82958F70BEDF5D989D
:100220005D9A8C2FBADF5D98ECDF8823ECF3CF91D9
:1002300008955C98E9CF08955C9AE6CF0895CF932E
:10024000DF93EC018881882329F02196F5DF8991DD
:100250008111FCCFDF91CF91089590E4699F800DCB
:1002600011248068E6CF0895CF93399A3A9A3B9A41
:100270003C9A559A549A579A85EA9EE00197F1F76D
:1002800000C000005C985D985F98C3E05D9A83E0D1
:1002900084DF5D9881EE94E00197F1F700C00000E3
:1002A000C150A1F75D9A82E078DF5D9889EF90E018
:1002B0000197F1F700C0000088E2BBDF88E0B9DFFA
:1002C00081E0B7DF86E0B5DF8CE0B3DFCF91089542
:1002D000CFEFCAB980E48BB9C7DF60E084E0BDDF4F
:1002E00081E091E0ACDF83E083B9E1E8F0E0808178
:1002F0008860808381E792E09093890080938800F2
:10030000AFE6B0E08C9182608C93808185608083C1
:10031000ECE7F0E0108280818064808380818083BC
:10032000EAE7F0E087E88083808180648083569AE2
:10033000C7BD84B5806C84BD84B5836084BD85B53C
:10034000826085BD78942FEF83ED90E3215080404B
:100350009040E1F700C00000609178007091790052
:1003600080E090E0EED22EE13AE74FEF5EE39FD3DC
:1003700020E032E84BE05FE37CD260932101709390
:100380002201809323019093240160931D017093B7
:100390001E0180931F01909320010AE211E021E0E9
:1003A00048E0E8D361E080E058DF8AE091E047DF91
:1003B000C80145DF8FE091E042DF80910001882392
:1003C00009F444C080911A018730E9F48091190141
:1003D0008F31D0F58091160190911701019690937D
:1003E000170180931601079754F087B5863038F0CF
:1003F00087B5815087BD109217011092160187B5FD
:10040000883008F417BC80911A018431E9F4809196
:1004100019018F31C8F4809116019091170101964E
:100420009093170180931601079754F087B58A3F80
:1004300038F487B58F5F87BD1092170110921601AF
:1004400087B58A3F08F0C7BD10920001189913C004
:1004500080911A018F5F883118F480931A0102C0CD
:1004600010921A012FEF85EA9EE0215080409040C3
:10047000E1F700C00000199913C0809119018F5F46
:100480008C3318F48093190102C0109219012FEFD8
:1004900085EA9EE0215080409040E1F700C00000D6
:1004A00080911A01873031F4809119018E3109F061
:1004B0006DC0589A80911A01833109F06AC0809109
:1004C000190181116CC0589880911A01883009F087
:1004D00059C08091190181110BC0599A80911A015C
:1004E000833111F462C0599880911A01883029F43F
:1004F000809119018E3151F45A9A80911A018431F8
:1005000029F480911901811101C05A988091140138
:10051000909115014E970CF450CF6091210170918C
:100520002201809123019091240160932601709310
:10053000270180932801909329019B01AC0199D157
:1005400020E030E040E05FE3B2D260931D017093A1
:100550001E0180931F01909320010AE211E021E027
:1005600048E008D361E080E078DE8AE091E067DE71
:10057000C80165DE8FE091E062DE109215011092F5
:1005800014011BCF833109F0B8CF0FC080911A013D
:10059000F9CF80911A01883009F0AFCF9ACF8091BE
:1005A00019018E3109F0A9CF9ECF809119018E31AA
:1005B00009F0ACCF98CF1F93CF93DF93CDB7DEB7C1
:1005C00028970FB6F894DEBF0FBECDBF60E084E081
:1005D00044DE80911A011DEC819F812D11248695A6
:1005E000869586954AE0BE016F5F7F4F90E0E1D22D
:1005F000CE01019624DE80911A01819F912D112454
:10060000969596959695990F292F220F220F920F66
:10061000891B4AE0BE016F5F7F4F90E0CAD2CE01D6
:1006200001960DDE82E191E00ADE80911901819F41
:10063000812D11248695869586954AE0BE016F5FCF
:100640007F4F90E0B6D2CE010196F9DD809119017D
:10065000819F912D1124969596959695990F292F06
:10066000220F220F920F891B4AE0BE016F5F7F4F5E
:1006700090E09FD2CE010196E2DD82E191E0DFDDE4
:1006800080911801819F812D1124869586958695EC
:100690004AE0BE016F5F7F4F90E08BD2CE010196A2
:1006A000CEDD80911801819F112D1124169516958C
:1006B0001695110F912F990F990F190F811B4AE071
:1006C000BE016F5F7F4F90E074D2CE010196B7DD1F
:1006D00028960FB6F894DEBF0FBECDBFDF91CF9145
:1006E0001F9108951F920F920FB60F921124CF926F
:1006F000DF92EF92FF922F933F934F935F936F930D
:100700007F938F939F93AF93BF93EF93FF938091CA
:1007100018018F5F8C3319F08093180107C0109275
:100720001801809119018F5F80931901809119013F
:100730008C3339F41092190180911A018F5F8093E4
:100740001A0180911A01883110F010921A0133DFDA
:100750008091140190911501019690931501809359
:100760001401EAE7F0E08081806480836091780082
:100770007091790080E090E0E4D02EE13AE74FEF0D
:100780005EE395D120E032E84BE05FE372D0609306
:100790002101709322018093230190932401C09042
:1007A0001D01D0901E01E0901F01F090200120E07B
:1007B00030E044EB51E4C701B601BFD0882374F4A4
:1007C0008091250181110AC080911B0190911C012B
:1007D000019690931C0180931B011CC020E030E027
:1007E00044EB51E4C701B6015ED1181674F4809150
:1007F0002501813051F480911B0190911C010196DB
:1008000090931C0180931B0105C010921C01109253
:100810001B0116C080911B0190911C014E9784F022
:1008200010921C0110921B0180912501811105C0BD
:100830005B9A81E08093250103C05B9810922501AB
:1008400081E080930001FF91EF91BF91AF919F9163
:100850008F917F916F915F914F913F912F91FF9079
:10086000EF90DF90CF900F900FBE0F901F901895D4
:100870005058BB27AA270ED0DCC0CDD030F0D2D044
:1008800020F031F49F3F11F41EF4C2C00EF4E09545
:10089000E7FBB8C0E92FDED080F3BA176207730711
:1008A0008407950718F071F49EF5F6C00EF4E095F4
:1008B0000B2EBA2FA02D0B01B90190010C01CA011A
:1008C000A0011124FF27591B99F0593F50F4503EC5
:1008D00068F11A16F040A22F232F342F4427585FB7
:1008E000F3CF469537952795A795F0405395C9F7CF
:1008F0007EF41F16BA0B620B730B840BBAF0915087
:10090000A1F0FF0FBB1F661F771F881FC2F70EC025
:10091000BA0F621F731F841F48F4879577956795F8
:10092000B795F7959E3F08F0B3CF9395880F08F0E1
:100930009927EE0F97958795089540D008F481E0A8
:100940000895E89409C097FB3EF4909580957095C2
:1009500061957F4F8F4F9F4F9923A9F0F92F96E90B
:10096000BB279395F695879577956795B795F11180
:10097000F8CFFAF4BB0F11F460FF1BC06F5F7F4F1D
:100980008F4F9F4F16C0882311F096E911C077232F
:1009900021F09EE8872F762F05C0662371F096E838
:1009A000862F70E060E02AF09A95660F771F881F07
:1009B000DAF7880F9695879597F90895990F0008AB
:1009C000550FAA0BE0E8FEEF16161706E807F90721
:1009D000C0F012161306E407F50798F0621B730BBC
:1009E000840B950B39F40A2661F0232B242B252B3D
:1009F00021F408950A2609F4A140A6958FEF811DE0
:100A0000811D089597F99F6780E870E060E0089580
:100A10009FEF80EC089500240A9416161706180616
:100A20000906089500240A941216130614060506F2
:100A30000895092E0394000C11F4882352F0BB0F83
:100A400040F4BF2B11F460FF04C06F5F7F4F8F4FE6
:100A50009F4F089557FD9058440F551F59F05F3F21
:100A600071F04795880F97FB991F61F09F3F79F0D0
:100A700087950895121613061406551FF2CF469552
:100A8000F1DF08C0161617061806991FF1CF8695D4
:100A90007105610508940895E894BB2766277727B8
:100AA000CB0197F908958ADF08F48FEF08950BD0F2
:100AB000C0CFB1DF28F0B6DF18F0952309F0A2CF40
:100AC000A7CF1124EACFC6DFA0F3959FD1F3950FEE
:100AD00050E0551F629FF001729FBB27F00DB11DC2
:100AE000639FAA27F00DB11DAA1F649F6627B00D52
:100AF000A11D661F829F2227B00DA11D621F739F3B
:100B0000B00DA11D621F839FA00D611D221F749F48
:100B10003327A00D611D231F849F600D211D822F8F
:100B2000762F6A2F11249F5750408AF0E1F08823D6
:100B30004AF0EE0FFF1FBB1F661F771F881F9150E3
:100B40005040A9F79E3F510570F05CCFA6CF5F3FA4
:100B5000ECF3983EDCF3869577956795B795F79516
:100B6000E7959F5FC1F7FE2B880F911D969587959E
:100B700097F90895EF920F931F93CF93DF93E801B6
:100B800047FD02C034E001C034E1E42F440FFF0B05
:100B9000F7FF03C0F195E195F109E32E022F2E2F07
:100BA000AE012AD0CE01DF91CF911F910F91EF902E
:100BB0000895BB274A3031F4992322F4BDE2909581
:100BC00081959F4F01C0BB27FB015527AA27880F9E
:100BD000991FAA1FA41710F0A41B83955051B9F7B1
:100BE000A05DAA3308F0A95DA193009779F7B11130
:100BF000B1931192CB0165C24F925F926F927F9237
:100C00009F92AF92BF92CF92DF92EF92FF920F939B
:100C10001F93CF93DF93CDB7DEB729970FB6F89424
:100C2000DEBF0FBECDBF6A01122FB02E2BE32017FF
:100C300020F0FF24F394F00E02C0BCE3FB2E0F2D36
:100C400027E0AE014F5F5F4F64D1AC018981982FDF
:100C50009970913031F0E1FC06C0E0FE06C090E2F0
:100C600005C09DE203C09BE201C090E0EE2DE07163
:100C700083FF3CC0911102C083E001C084E0811772
:100C800018F4212F281B01C020E0E1110BC0F60150
:100C9000822F30E2882319F031938150FBCFC20EAE
:100CA000D11C20E0992329F0D6019C93F6013196BE
:100CB0006F01C6010396E2FE0AC03EE4D6013C93F2
:100CC00041E411964C93119712963C9306C03EE670
:100CD000F601308341E641833283FC01322F40E24A
:100CE000332309F442C041933150FACF82FF44C00C
:100CF000911102C083E001C084E0811718F4212F14
:100D0000281B01C020E0E1110BC0F601822F30E268
:100D1000882319F031938150FBCFC20ED11C20E003
:100D2000992329F0D6019C93F60131966F01C601F3
:100D30000396E2FE0BC039E4D6013C933EE41196E3
:100D40003C93119736E412963C9307C039E6F601BE
:100D500030833EE6318336E63283FC01322F40E2B7
:100D6000332319F041933150FBCFFC01E20FF11D09
:100D700010828EEF9FEFB7C0F1E0911101C0F0E05B
:100D80006F2F70E01416150624F49A012F5F3F4F61
:100D900002C021E030E0260F371FBB2029F06B2D69
:100DA00070E06F5F7F4F02C060E070E0260F371F7A
:100DB000612F70E0261737071CF4121B212F01C08A
:100DC00020E03E2D387159F4D601322F60E23323F2
:100DD00019F06D933150FBCFC20ED11C20E0FF23E0
:100DE00031F0D6019C93B6016F5F7F4F6B01E1112B
:100DF0000BC0F601922F30E3992319F031939150F3
:100E0000FBCFC20ED11C20E09F2D940F3A81782F8A
:100E10007071A72E84FF03C0313309F49150191665
:100E200024F4993018F098E001C091E0E42F852F68
:100E300057FF02C0E0E080E06E2F782FE0E0F0E0A6
:100E4000AEE29A2E3A01691A71082A01461A570A27
:100E50000B2D10E01195019511096F3F8FEF780769
:100E600029F4D6019C92C60101966C0146175707DA
:100E700084F0661677066CF47F01E40CF51CA1E0A3
:100E8000B0E0AC0FBD1FEA0EFB1ED7011196BC905F
:100E900002C090E3B92E615071093196C6010196E6
:100EA0007C016017710724F0D601BC926C01D5CF8C
:100EB0006417750741F4363320F4353321F4A1105B
:100EC00002C081E3B82EF601B082F701822F90E2D2
:100ED000882319F091938150FBCFF701E20FF11DA8
:100EE000108280E090E029960FB6F894DEBF0FBE26
:100EF000CDBFDF91CF911F910F91FF90EF90DF90C9
:100F0000CF90BF90AF909F907F906F905F904F90E9
:100F10000895283008F027E03327DA01990F311DB2
:100F200087FD916000966105710539F432602E5F8E
:100F30003D9330E32A95E1F708959F3F30F08038E4
:100F40007105610509F03C5F3C5F3D93913008F00D
:100F50008068911DDF93CF931F930F93FF92EF92C1
:100F6000192F987F9695E92F96959695E90FFF276B
:100F7000EE53FF4F99273327EE24FF24A701E70103
:100F800005900894079428F4360FE71EF81E491FB1
:100F9000511D660F771F881F991F0694A1F70590B2
:100FA000079428F4E70EF81E491F561FC11D770F3E
:100FB000881F991F661F0694A1F70590079428F4CF
:100FC000F80E491F561FC71FD11D880F991F661F96
:100FD000771F0694A1F70590079420F4490F561F38
:100FE000C71FD81F990F661F771F881F0694A9F780
:100FF00084911095177041F0D695C79557954795F0
:10100000F794E7941A95C1F7E8E6F0E06894159034
:10101000159135916591959105907FE27395E11851
:10102000F10A430B560BC90BD009C0F7E10CF11EB6
:10103000431F561FC91FD01D7EF4703311F48A95CB
:10104000E6CFE894015030F0080F0AF400270217A9
:1010500008F4202F2395022F7A3328F079E37D932B
:101060002A95E9F710C07D932A9589F606949795FD
:101070006795379517951794E118F10A430B560BAE
:10108000C90BD00998F023957E9173957A3308F0B7
:1010900070E37C932013B8F77E9170617D9330F0FC
:1010A000839571E37D9370E32A95E1F71124EF9026
:1010B000FF900F911F91CF91DF91992787FD909518
:1010C0000895DC01FC01672F71917723E1F73297D6
:1010D00004C07C916D9370836291AE17BF07C8F313
:0610E0000895F894FFCF13
:1010E6000130303A30303A30300074656D7000208F
:0410F60043003A0079
:00000001FF
