S00C00004C4D33352E7372656317
S11300000C9434000C9451000C9451000C94510045
S11300100C9451000C9451000C9451000C94510018
S11300200C9451000C9451000C9451000C94510008
S11300300C9451000C9451000C9451000C945100F8
S11300400C9451000C9451000C9451000C945100E8
S11300500C9451000C9401010C9451000C94510027
S11300600C9451000C94510011241FBECFEFD8E022
S1130070DEBFCDBF11E0A0E0B1E0E4EBF9E002C0E7
S113008005900D92A231B107D9F721E0A2E1B1E0C8
S113009001C01D92AB31B207E1F70E946C010C94D0
S11300A0D8040C94000080FF02C0419A01C041981A
S11300B081FF02C0429A01C0429882FF02C0439A63
S11300C001C0439883FF02C0449A08954498089558
S11300D086B18695817032998260339984603499AF
S11300E088600895CF93DF9339983A983B983C9869
S11300F05E9A5D9A0E94680090E1899FE001112454
S11301005D985D9A0E9468005D988C2BDF91CF9179
S113011008955C980C947200CF93C82F399A3A9A38
S11301203B9A3C9A5E985D9A82958F700E94530028
S11301305D985D9A8C2F0E9453005D980E948900FF
S113014087FDFCCFCF9108955C980C948C005C9A49
S11301500C948C00CF93DF93EC018991882319F0E0
S11301600E94A700FACFDF91CF91089590E4699F90
S1130170800D112480680C94A40081E00E94A400E6
S11301808FE39FE10197F1F700C000000895CF933A
S1130190399A3A9A3B9A3C9A559A549A569A8FE5C8
S11301A09AEE0197F1F700C000005C985D985E98A4
S11301B0C3E05D9A83E00E9453005D988FE19EE462
S11301C00197F1F700C00000C15099F75D9A82E0F1
S11301D00E9453005D988FE99FE00197F1F700C0FA
S11301E0000088E20E94A40088E00E94A40081E04C
S11301F00E94A40086E00E94A4008CE0CF910C949D
S1130200A4001F920F920FB60F9211242F933F93C5
S11302108F939F93AF93BF9320917800309179008F
S11302208091130190911401A0911501B0911601D0
S1130230820F931FA11DB11D80931301909314018C
S1130240A0931501B0931601209112012F5F209302
S11302501201203891F48093170190931801A09310
S11302601901B0931A011092130110921401109203
S113027015011092160110921201BF91AF919F9136
S11302808F913F912F910F900FBE0F901F90189553
S1130290ECE7F0E010828081806480838081808339
S11302A087E880937A000895F8942091170130919B
S11302B018014091190150911A017894A8EFBAE2FB
S11302C00E94CB01DC01CB0121E1B695A79597955E
S11302D087952A95D1F70895CF93DF93CDB7DEB7ED
S11302E027970FB6F894DEBF0FBECDBF0E94C7009C
S11302F00E9448010E94BD0060E070E080E090E050
S11303000E94B60080E091E00E94AA008DE0E82EF1
S113031081E0F82E8E010F5F1F4F9CE2B92E0E94E0
S113032054019F938F93FF92EF921F930F930E9418
S1130330F701F80101900020E9F73197E01BF10B78
S1130340FF276F0122E0C21AD108C00ED11ECF01CF
S1130350019743E050E0B601800F911F0E94E50130
S1130360F601B0826AE070E080E090E00E94B6009E
S1130370C8010E94AA00FFEF29E688E1F15020405D
S11303808040E1F700C000000F900F900F900F9095
S11303900F900F90C4CF0E94D601A59F900DB49FDB
S11303A0900DA49F800D911D11240895A29FB0016A
S11303B0B39FC001A39F700D811D1124911DB29F95
S11303C0700D811D1124911D08956817790768F433
S11303D0FB01DC01E40FF51FA40FB51F02C002905E
S11303E00E9241505040D8F708950C94F703AEE0B4
S11303F0B0E0EDEFF1E00C94AF040D891E8986E0C6
S11304008C831A8309838FEF9FE79E838D83AE01CC
S1130410475E5F4F6F89788DCE0101960E941A0264
S11304202F813885F801E20FF31F10822E96E4E045
S11304300C94CB04ACE0B0E0E0E2F2E00C94A10454
S11304407C016B018A01FC0117821682838181FF82
S1130450BDC1CE0101964C01F7019381F60193FDD4
S1130460859193FF81916F01882309F4ABC1853293
S113047039F493FD859193FF81916F01853229F4BD
S1130480B70190E00E940B04E7CF512C312C20E0FF
S11304902032A0F48B3269F030F4803259F0833288
S11304A069F420612CC08D3239F0803339F4216035
S11304B026C02260246023C0286021C027FD27C0F5
S11304C030ED380F3A3078F426FF06C0FAE05F9E2C
S11304D0300D1124532E13C08AE0389E300D1124A0
S11304E0332E20620CC08E3221F426FD6BC12064B1
S11304F006C08C3611F4206802C0883641F4F60137
S113050093FD859193FF81916F018111C1CF982F44
S11305109F7D9554933028F40C5F1F4FFFE3F983BC
S11305200DC0833631F0833771F0833509F05BC039
S113053022C0F801808189830E5F1F4F44244394B5
S1130540512C540115C03801F2E06F0E711CF801F2
S1130550A080B18026FF03C0652D70E002C06FEF5C
S11305607FEFC5012C870E9400042C0183012C8598
S11305702F77222E17C03801F2E06F0E711CF8019C
S1130580A080B18026FF03C0652D70E002C06FEF2C
S11305907FEFC5012C870E94EC032C012C85206879
S11305A0222E830123FC1BC0832D90E0481659069C
S11305B0B0F4B70180E290E00E940B043A94F4CFC7
S11305C0F50127FC859127FE81915F01B70190E039
S11305D00E940B0431103A94F1E04F1A510841146F
S11305E0510471F7E5C0843611F0893639F5F80104
S11305F027FF07C060817181828193810C5F1F4F47
S113060008C060817181072E000C880B990B0E5F66
S11306101F4F2F76722E97FF09C090958095709585
S113062061957F4F8F4F9F4F2068722E2AE030E0F4
S1130630A4010E944304A82EA81844C0853729F4B5
S11306402F7EB22E2AE030E025C0F22FF97FBF2E94
S11306508F36C1F018F4883579F0B4C0803719F0BA
S1130660883721F0AFC02F2F2061B22EB4FE0DC009
S11306708B2D8460B82E09C024FF0AC09F2F96607A
S1130680B92E06C028E030E005C020E130E002C009
S113069020E132E0F801B7FE07C0608171818281F8
S11306A093810C5F1F4F06C06081718180E090E0F0
S11306B00E5F1F4FA4010E944304A82EA818FB2D0F
S11306C0FF777F2E76FE0BC0372D3E7FA51450F4A6
S11306D074FE0AC072FC08C0372D3E7E05C0BA2CD9
S11306E0372D03C0BA2C01C0B52C34FF0DC0FE0158
S11306F0EA0DF11D8081803311F4397E09C032FF87
S113070006C0B394B39404C0832F867809F0B394DD
S113071033FD13C030FF06C05A2CB31418F4530C25
S11307205B18B32CB31468F4B70180E290E03C8703
S11307300E940B04B3943C85F5CFB31410F43B181A
S113074001C0312C34FF12C0B70180E390E03C8734
S11307500E940B043C8532FF17C031FD03C088E7BB
S113076090E002C088E590E0B7010CC0832F867842
S113077059F031FF02C08BE201C080E237FD8DE207
S1130780B70190E00E940B04A51438F4B70180E38C
S113079090E00E940B045A94F7CFAA94F401EA0D56
S11307A0F11D8081B70190E00E940B04A110F5CFE8
S11307B0332009F451CEB70180E290E00E940B048B
S11307C03A94F6CFF7018681978102C08FEF9FEFAD
S11307D02C96E2E10C94BD04FC010590615070403C
S11307E00110D8F7809590958E0F9F1F0895FB01F7
S11307F0DC0102C001900D9241505040D8F7089599
S1130800FC016150704001900110D8F780959095DB
S11308108E0F9F1F08950F931F93CF93DF93FB01B8
S1130820238121FD03C08FEF9FEF28C022FF16C054
S113083046815781248135814217530744F4A081AE
S1130840B1819D012F5F3F4F318320838C9326819B
S113085037812F5F3F4F3783268310C0EB01092F69
S1130860182F0084F185E02D0995892BE1F68E81FE
S11308709F8101969F838E83812F902FDF91CF914B
S11308801F910F910895FA01AA27283051F12031C0
S113089081F1E8946F936E7F6E5F7F4F8F4F9F4F10
S11308A0AF4FB1E03ED0B4E03CD0670F781F891F52
S11308B09A1FA11D680F791F8A1F911DA11D6A0F20
S11308C0711D811D911DA11D20D009F468943F91D3
S11308D02AE0269F11243019305D3193DEF6CF01D2
S11308E00895462F4770405D4193B3E00FD0C9F798
S11308F0F6CF462F4F70405D4A3318F0495D31FD05
S11309004052419302D0A9F7EACFB4E0A695979557
S1130910879577956795BA95C9F70097610571052D
S113092008959B01AC010A2E069457954795379577
S11309302795BA95C9F7620F731F841F951FA01DD1
S113094008952F923F924F925F926F927F928F926F
S11309509F92AF92BF92CF92DF92EF92FF920F934A
S11309601F93CF93DF93CDB7DEB7CA1BDB0B0FB654
S1130970F894DEBF0FBECDBF09942A883988488811
S11309805F846E847D848C849B84AA84B984C884A7
S1130990DF80EE80FD800C811B81AA81B981CE0F9E
S11309A0D11D0FB6F894DEBF0FBECDBFED01089583
S10709B0F894FFCFE5
S11309B454656D70657261747572613A00253564AD
S10509C400002D
S9030000FC
