S013000050727A65727977616E69652E7372656371
S113000033C0000039C0000037C0000035C0000014
S113001033C0000031C000002FC000002DC000001C
S11300202BC0000029C0000027C000003EC0000013
S113003023C0000021C000001FC000001DC000003C
S11300401BC0000019C0000017C0000015C000004C
S113005013C0000011C000000FC000000DC000005C
S11300600BC0000009C0000011241FBECFEFD4E074
S1130070DEBFCDBF02D02BC0C3CF81E08AB98BB91C
S113008089E09DE39093890080938800E1E8F0E0A3
S1130090808188608083AFE6B0E08C9182608C932D
S11300A08081856080837894FFCF1F920F920FB672
S11300B00F9211248F939F939BB181E089278BB971
S11300C09F918F910F900FBE0F901F901895F894E9
S10500D0FFCF5C
S9030000FC
