:1000000033C000004CC000004AC0000048C00000DF
:1000100046C0000044C0000042C0000040C00000D4
:100020003EC000003CC000003AC000007BC10000A0
:1000300036C0000034C0000032C0000030C00000F4
:100040002EC000002CC000002AC0000028C0000004
:1000500026C0000024C0000022C0000020C0000014
:100060001EC000001CC0000011241FBECFEFD4E052
:10007000DEBFCDBF11E0A0E0B1E0E4E1F4E002C0FA
:1000800005900D92A031B107D9F721E0A0E1B1E0D0
:1000900001C01D92A331B207E1F775D0B9C1B0CF4D
:1000A00088B95C985D9A8AE08A95F1F700C05D98FE
:1000B0008FE39CE90197F1F700C00000089588B92B
:1000C0005C9A5D9A2AE02A95F1F700C05D988FEF5F
:1000D00093ED20E3815090402040E1F700C0000004
:1000E000089580E38AB98FEC8BB98EE187B981EEF0
:1000F00088B98FE39CE90197F1F700C0000088E31D
:10010000CFDF8CE0CDDF81E0CBDF8FE39CE901978F
:10011000F1F700C0000086E0C3CF0895CF93DF93CE
:1001200000D000D0CDB7DEB790E8998390EC9A83E9
:1001300094E99B8394ED9C836150FE01E80FF11DCF
:100140008081860FADDF85E38A95F1F700000F907F
:100150000F900F900F90DF91CF9108950F931F9301
:10016000CF938C01C0E0FC018081882341F0A7DFA0
:10017000CF5FF801EC0FF11D80818111F8CFCF9195
:100180001F910F910895ADDF89E091E0E7DF61E015
:1001900083E0C4DF80E091E0E1DF83E08BB989E0B8
:1001A0009DE39093890080938800E1E8F0E08081EE
:1001B00088608083AFE6B0E08C9182608C93808110
:1001C00085608083789448990AC0809112018F5F7E
:1001D000883118F48093120102C0109212014999DB
:1001E000F2CF809111018F5F809311018C3358F30E
:1001F00010921101E8CF1F93CF93DF93CDB7DEB7F5
:10020000A0970FB6F894DEBF0FBECDBF64E082E0CA
:1002100085DF809112011DEC819F812D112486952F
:10022000869586954AE0BE016F5F7F4F90E0BDD016
:10023000CE01019693DF80911201819F912D1124AF
:10024000969596959695990F292F220F220F920F2A
:10025000891B4AE0BE016F5F7F4F90E0A6D0CE01C0
:1002600001967CDF8EE091E079DF80911101819F22
:10027000812D11248695869586954AE0BE016F5F93
:100280007F4F90E092D0CE01019668DF80911101FE
:10029000819F912D1124969596959695990F292FCA
:1002A000220F220F920F891B4AE0BE016F5F7F4F22
:1002B00090E07BD0CE01019651DF8EE091E04EDFE1
:1002C00080911001819F812D1124869586958695B8
:1002D0004AE0BE016F5F7F4F90E067D0CE0101968C
:1002E0003DDF80911001819F112D112416951695E7
:1002F0001695110F912F990F990F190F811B4AE035
:10030000BE016F5F7F4F90E050D0CE01019626DF97
:10031000A0960FB6F894DEBF0FBECDBFDF91CF9190
:100320001F9108951F920F920FB60F9211242F93D1
:100330003F934F935F936F937F938F939F93AF936D
:10034000BF93EF93FF93809110018F5F8C3319F06F
:100350008093100107C010921001809111018F5FEE
:1003600080931101809111018C3339F410921101A5
:10037000809112018F5F8093120180911201883168
:1003800010F01092120137DFFF91EF91BF91AF9102
:100390009F918F917F916F915F914F913F912F919D
:1003A0000F900FBE0F901F901895BB274A3031F465
:1003B000992322F4BDE2909581959F4F01C0BB2700
:1003C000FB015527AA27880F991FAA1FA41710F011
:1003D000A41B83955051B9F7A05DAA3308F0A95D1D
:1003E000A193009779F7B111B1931192CB0100C09D
:1003F000DC01FC01672F71917723E1F7329704C08C
:100400007C916D9370836291AE17BF07C8F3089516
:04041000F894FFCF8E
:1004140030303A30303A303000637A6173003A0059
:00000001FF
