S01000005A656761723131312E7372656388
S113000033C000004CC000004AC0000048C00000DB
S113001046C0000044C0000042C0000040C00000D0
S11300203EC000003CC000003AC0000051C10000C6
S113003036C0000034C0000032C0000030C00000F0
S11300402EC000002CC000002AC0000028C0000000
S113005026C0000024C0000022C0000020C0000010
S11300601EC000001CC0000011241FBECFEFD4E04E
S1130070DEBFCDBF11E0A0E0B1E0E0ECF3E002C0F0
S113008005900D92A031B107D9F721E0A0E1B1E0CC
S113009001C01D92A331B207E1F770D08FC1B0CF78
S11300A088B95C985D9A82E08A95F1F700C05D9802
S11300B085E88A95F1F70000089588B95C9A5D9AFD
S11300C082E08A95F1F700C05D9885E88A95F1F79A
S11300D00000089580E38AB98FEC8BB98EE187B96B
S11300E081EE88B98FE097E20197F1F700C0000034
S11300F088E3D6DF8CE0D4DF81E0D2DF8FE097E2C3
S11301000197F1F700C0000086E0CACF0895CF93AD
S1130110DF9300D000D0CDB7DEB790E8998390ECA0
S11301209A8394E99B8394ED9C836150FE01E80FCC
S1130130F11D8081860FB4DF8FE097E20197F1F71C
S113014000C000000F900F900F900F90DF91CF919F
S113015008950F931F93CF938C01C0E0FC0180811D
S1130160882341F0AADFCF5FF801EC0FF11D8081F5
S11301708111F8CFCF911F910F910895ABDF89E0E2
S113018091E0E7DF61E083E0C2DF80E091E0E1DF5E
S113019083E08BB98CE08093810089E09DE39093A8
S11301A089008093880082E080936E007894489957
S11301B00AC0809112018F5F883118F48093120174
S11301C002C0109212014999F2CF809111018F5F00
S11301D0809311018C3358F310921101E8CF0F93DF
S11301E01F93CF9364E082E092DF00E010E08091FF
S11301F01201CDEC8C9F812D1124869586958695D0
S11302004AE0B80190E0A7D0C801A3DF80911201B1
S11302108C9F912D1124969596959695990F292F3B
S1130220220F220F920F891B4AE0B80190E093D06D
S1130230C8018FDF8EE091E08CDF809111018C9FEB
S1130240812D11248695869586954AE0B80190E023
S113025082D0C8017EDF809111018C9F912D1124E1
S1130260969596959695990F292F220F220F920F06
S1130270891B4AE0B80190E06ED0C8016ADF8EE0C5
S113028091E067DF809110018C9F812D1124869568
S1130290869586954AE0B80190E05DD0C80159DFA3
S11302A0809110018C9FC12D1124C695C695C695C9
S11302B0CC0F9C2F990F990FC90F8C1B4AE0B801E2
S11302C090E049D0C80145DFCF911F910F91089567
S11302D01F920F920FB60F9211242F933F934F93B7
S11302E05F936F937F938F939F93AF93BF93EF939A
S11302F0FF93809110018F5F8C3319F0809310016C
S113030007C010921001809111018F5F8093110139
S1130310809111018C3339F41092110180911201F2
S11303208F5F8093120180911201883110F0109236
S1130330120155DFFF91EF91BF91AF919F918F9182
S11303407F916F915F914F913F912F910F900FBECD
S11303500F901F901895BB274A3031F4992322F44B
S1130360BDE2909581959F4F01C0BB27FB015527A6
S1130370AA27880F991FAA1FA41710F0A41B8395FE
S11303805051B9F7A05DAA3308F0A95DA193009775
S113039079F7B111B1931192CB0100C0DC01FC01DA
S11303A0672F71917723E1F7329704C07C916D93A5
S11303B070836291AE17BF07C8F30895F894FFCF16
S11303C030303A30303A303000637A6173003A00AA
S9030000FC
