S0180000476363426F61726450726F6A656374322E737265630E
S113000033C0000044C0000042C0000040C00000F3
S11300103EC000003CC000003AC0000038C00000F0
S113002036C0000034C0000032C0000030C0000000
S11300302EC000002CC000002AC0000028C0000010
S113004026C0000024C0000022C0000020C0000020
S11300501EC000001CC000001AC0000018C0000030
S113006016C0000014C0000011241FBECFEFD4E05E
S1130070DEBFCDBF11E0A0E0B1E0EAE5F2E002C0EE
S113008005900D92A830B107D9F78DD0E4C0B8CF50
S113009080FF02C0419A01C0419881FF02C0429A88
S11300A001C0429882FF02C0439A01C0439883FF73
S11300B002C0449A089544980895CF93C82F5D9A36
S11300C082958F70E5DF5D985D9A8C2FE1DF5D98F6
S11300D086EA8A95F1F700C0CF9108955C98EDCF38
S11300E008955C9AEACF0895CF93DF93EC01888159
S11300F0882329F02196F5DF89918111FCCFDF91C6
S1130100CF91089590E4699F800D11248068E6CF13
S1130110089581E0E3DF83EF91E00197F1F700C0F8
S11301200000089582E0DADF83EF91E00197F1F7B0
S113013000C000000895CF93399A3A9A3B9A3C9AAA
S1130140559A549A85EA9EE00197F1F700C00000A1
S11301505C985D98C3E05D9A83E09ADF5D9881EED8
S113016094E00197F1F700C00000C150A1F75D9A37
S113017082E08EDF5D9889EF90E00197F1F700C08F
S1130180000088E2ABDF88E0A9DF81E0A7DF83EF2E
S113019091E00197F1F700C0000086E09FDF8CE05A
S11301A09DDFCF910895CF93DF93CDB7DEB76E97E0
S11301B00FB6F894DEBF0FBECDBF56985E9ABBDF74
S11301C0A8DFB0DF80E091E08FDF00E010E04AE0DC
S11301D0BE016F5F7F4FC8010BD061E083E092DF07
S11301E0CE01019681DF5E99F2CF0F5F1F4FEFCFF3
S11301F0BB274A3031F4992322F4BDE290958195CE
S11302009F4F01C0BB27FB015527AA27880F991FC1
S1130210AA1FA41710F0A41B83955051B9F7A05D31
S1130220AA3308F0A95DA193009779F7B111B193AE
S11302301192CB0100C0DC01FC01672F719177237F
S1130240E1F7329704C07C916D9370836291AE178D
S10D0250BF07C8F30895F894FFCF28
S10B025A4C69637A6E696B00C4
S9030000FC
